:020000040000fa
:080000000002040000000000f2
:020000040000fa
:04000800c80200002a
:020000040000fa
:04000c00c802000026
:020000040000fa
:04001000c802000022
:020000040000fa
:04001400c80200001e
:020000040000fa
:04001800c80200001a
:020000040000fa
:04001c00c802000016
:020000040000fa
:04002000c802000012
:020000040000fa
:04002400c80200000e
:020000040000fa
:04002800c80200000a
:020000040000fa
:04002c00c802000006
:020000040000fa
:04003000c802000002
:020000040000fa
:04003400da050000e9
:020000040000fa
:04003800c8020000fa
:020000040000fa
:04003c00c8020000f6
:020000040000fa
:04004000c8020000f2
:020000040000fa
:04004400c8020000ee
:020000040000fa
:04004800c8020000ea
:020000040000fa
:04004c00c8020000e6
:020000040000fa
:04005000c8020000e2
:020000040000fa
:04005400c8020000de
:020000040000fa
:04005800c8020000da
:020000040000fa
:04005c00c8020000d6
:020000040000fa
:04006000c8020000d2
:020000040000fa
:04006400c8020000ce
:020000040000fa
:04006800c8020000ca
:020000040000fa
:04006c00c8020000c6
:020000040000fa
:04007000c8020000c2
:020000040000fa
:04007400c8020000be
:020000040000fa
:04007800c8020000ba
:020000040000fa
:04007c00c8020000b6
:020000040000fa
:04008000c8020000b2
:020000040000fa
:04008400c8020000ae
:020000040000fa
:04008800c8020000aa
:020000040000fa
:04008c00c8020000a6
:020000040000fa
:04009000c8020000a2
:020000040000fa
:04009400c80200009e
:020000040000fa
:04009800c80200009a
:020000040000fa
:04009c00c802000096
:020000040000fa
:0400a000c802000092
:020000040000fa
:0400a400c80200008e
:020000040000fa
:0400a800c80200008a
:020000040000fa
:0400ac00c802000086
:020000040000fa
:0400b000c802000082
:020000040000fa
:0400b400c80200007e
:020000040000fa
:0400b800c80200007a
:020000040000fa
:0400bc00c802000076
:020000040000fa
:0400c000c802000072
:020000040000fa
:0400c400c80200006e
:020000040000fa
:0400c800c80200006a
:020000040000fa
:0400cc00c802000066
:020000040000fa
:0400d000c802000062
:020000040000fa
:0400d400c80200005e
:020000040000fa
:0400d800c80200005a
:020000040000fa
:0400dc00c802000056
:020000040000fa
:0400e000c802000052
:020000040000fa
:0400e400c80200004e
:020000040000fa
:0400e800c80200004a
:020000040000fa
:0400ec00c802000046
:020000040000fa
:0400f000c802000042
:020000040000fa
:0400f400c80200003e
:020000040000fa
:0400f800c80200003a
:020000040000fa
:0400fc00c802000036
:020000040000fa
:04010000c802000031
:020000040000fa
:04010400c80200002d
:020000040000fa
:04010800c802000029
:020000040000fa
:04010c00c802000025
:020000040000fa
:04011000c802000021
:020000040000fa
:04011400c80200001d
:020000040000fa
:04011800c802000019
:020000040000fa
:04011c00c802000015
:020000040000fa
:04012000c802000011
:020000040000fa
:04012400c80200000d
:020000040000fa
:04012800c802000009
:020000040000fa
:04012c00c802000005
:020000040000fa
:04013000c802000001
:020000040000fa
:04013400c8020000fd
:020000040000fa
:04013800c8020000f9
:020000040000fa
:04013c00c8020000f5
:020000040000fa
:04014000c8020000f1
:020000040000fa
:04014400c8020000ed
:020000040000fa
:04014800c8020000e9
:020000040000fa
:04014c00c8020000e5
:020000040000fa
:04015000c8020000e1
:020000040000fa
:04015400c8020000dd
:020000040000fa
:04015800c8020000d9
:020000040000fa
:04015c00c8020000d5
:020000040000fa
:04016000c8020000d1
:020000040000fa
:04016400c8020000cd
:020000040000fa
:04020800c802000028
:020000040000fa
:04020c00c802000024
:020000040000fa
:04021000c802000020
:020000040000fa
:04021400c80200001c
:020000040000fa
:04021800c802000018
:020000040000fa
:04021c00c802000014
:020000040000fa
:04022000c802000010
:020000040000fa
:04022400c80200000c
:020000040000fa
:04022800c802000008
:020000040000fa
:04022c00c802000004
:020000040000fa
:04023000c802000000
:020000040000fa
:04023400c8020000fc
:020000040000fa
:04023800c8020000f8
:020000040000fa
:04023c00c8020000f4
:020000040000fa
:04024000c8020000f0
:020000040000fa
:04024400c8020000ec
:020000040000fa
:04024800c8020000e8
:020000040000fa
:04024c00c8020000e4
:020000040000fa
:04025000c8020000e0
:020000040000fa
:04025400c8020000dc
:020000040000fa
:04025800c8020000d8
:020000040000fa
:04025c00c8020000d4
:020000040000fa
:04026000c8020000d0
:020000040000fa
:04026400c8020000cc
:020000040000fa
:04026800c8020000c8
:020000040000fa
:04026c00c8020000c4
:020000040000fa
:04027000c8020000c0
:020000040000fa
:04027400c8020000bc
:020000040000fa
:04027800c8020000b8
:020000040000fa
:04027c00c8020000b4
:020000040000fa
:04028000c8020000b0
:020000040000fa
:04028400c8020000ac
:020000040000fa
:04028800c8020000a8
:020000040000fa
:04028c00c8020000a4
:020000040000fa
:04029000c8020000a0
:020000040000fa
:04029400c80200009c
:020000040000fa
:04029800c802000098
:020000040000fa
:04029c00c802000094
:020000040000fa
:0402a000c802000090
:020000040000fa
:0402a400c80200008c
:020000040000fa
:0402a800c802000088
:020000040000fa
:0402ac00c802000084
:020000040000fa
:0402b000c802000080
:020000040000fa
:0402b400c80200007c
:020000040000fa
:0402b800c802000078
:020000040000fa
:0402bc00c802000074
:020000040000fa
:0402c000c802000070
:020000040000fa
:0402c400c80200006c
:020000040000fa
:0402c800c802000068
:020000040000fa
:0402cc00c802000064
:020000040000fa
:0402d000c802000060
:020000040000fa
:0402d400c80200005c
:020000040000fa
:0402d800c802000058
:020000040000fa
:0402dc00c802000054
:020000040000fa
:0402e000c802000050
:020000040000fa
:0402e400c80200004c
:020000040000fa
:0402e800c802000048
:020000040000fa
:0402ec00c802000044
:020000040000fa
:0402f000c802000040
:020000040000fa
:0402f400c80200003c
:020000040000fa
:0402f800c802000038
:020000040000fa
:0402fc00c802000034
:020000040000fa
:04030000c80200002f
:020000040000fa
:04030400c80200002b
:020000040000fa
:04030800c802000027
:020000040000fa
:04030c00c802000023
:020000040000fa
:04031000c80200001f
:020000040000fa
:04031400c80200001b
:020000040000fa
:04031800c802000017
:020000040000fa
:04031c00c802000013
:020000040000fa
:04032000c80200000f
:020000040000fa
:04032400c80200000b
:020000040000fa
:04032800c802000007
:020000040000fa
:04032c00c802000003
:020000040000fa
:04033000c8020000ff
:020000040000fa
:04033400c8020000fb
:020000040000fa
:04033800c8020000f7
:020000040000fa
:04033c00c8020000f3
:020000040000fa
:04034000c8020000ef
:020000040000fa
:04034400c8020000eb
:020000040000fa
:04034800c8020000e7
:020000040000fa
:04034c00c8020000e3
:020000040000fa
:04035000c8020000df
:020000040000fa
:04035400c8020000db
:020000040000fa
:04035800c8020000d7
:020000040000fa
:04035c00c8020000d3
:020000040000fa
:04036000c8020000cf
:020000040000fa
:04036400c8020000cb
:020000040000fa
:100400002f8120000e7f24000e01880000000000d4
:10041000000020000000e000020032000001200087
:1004200020028800140007005b0007000000e000c5
:1004300003003a00a0642000010020000200370001
:100440000000200001002000810f70000100320038
:1004500014000700000020000000e000020032004d
:100460000000020000000000f20502000000000091
:100470000040da000000fe004440a9000000200017
:100480000000e0000300320000002000a00188000e
:100490004440a800000006008a1f78008b1f7800e7
:1004a0000000060091018800800478000000eb0045
:1004b0001a003700e284440032a0b4009905ba0063
:1004c000e284440032a0b4009906ba00e2844400f9
:1004d00032a0b4000006eb00476fde00fd07b2005b
:1004e000636ce10003003a00ebff07000000eb0043
:1004f0000a003700606ce10004003a00005deb0088
:100500008b05e900fdff3e00040037006168e10053
:10051000010032000086eb000b00070019c7ba008b
:100520001905ba000e04e00003003a000a00e000da
:10053000e0ff3a0000000600fe07b2009e018800be
:100540008a047800f5ff3700395dba008b05e900b1
:100550000c003200295dba008b05e900080032006a
:100560000c00e00003003a00e284440032a0b40032
:10057000f5ff370019ddba008b05e900faff3a00f4
:100580008904e800e184440032a0b40000000600c1
:100590000040da000000fe0000000500889fbe0059
:1005a0008a9fbe0030044200b0844a0030054b00f0
:1005b00090854b006000b1000898be000a90be0014
:1005c0000440e10005c8e10006d0e10007d8e100e1
:1005d00002003100680040001008e8004f05be002e
:1005e0004f04be0000000600889fbe008a9fbe0028
:1005f0003004be002005be000418540005985c00bd
:1006000006185d0007985d00110020000440e1001d
:1006100005c8e10006d0e10007d8e100010039007b
:100620008000eb00108810004f05be004f04be0094
:10063000000006001200fa00889fbe008a9fbe00dc
:100640008c9fbe00e0b79f00f1b79f0082bf9f0064
:1006500093bf9f000605be000404be000000eb002f
:10066000d0b79f00c0b79f00b0b79f00a0b79f0052
:1006700090b79f000006eb005fb19700cfb09700e6
:10068000820141003fb097000200e00004003d00fd
:10069000370007007e805700c0ff070003003700c7
:1006a000330007007e805700cfff0700dfb69700ba
:1006b0000d00e0000c0035006fb29700ffb297000c
:1006c0000fbb97009fbb9700100020000100200087
:1006d0006011b80000027200818272000203730090
:1006e000838373001b0007000c06e8000104200050
:1006f000810f5600e0ff3a000d00e00004003d00cd
:100700000802be000a03be007e805700a3ff070058
:100710005fa897000000e00005003a001fb29700b4
:10072000afb297003fb39700cfb39700090007001f
:100730006fb09700ffb097000fb997009fb997006f
:100740004f06be004f05be004f04be000080fa00f9
:10075000000006000100070000000600a4b79f008b
:10076000b5b79f00c6b79f00d7b79f00000006002f
:100770004f09de0082817100b3b79f004f01de0098
:100780008180400082807000a1b79f008fb09700e9
:100790004f09de00000040000200700090b79f008b
:1007a0007fa897004f01de008180400082807000aa
:1007b00081b79f000d0007004f3ade0000004000a7
:1007c00004007000f0af9f00080007000402420020
:1007d00085824a0006034b0087834b00dfff07003a
:1007e0000802be000a03be00000006002fb29700f8
:1007f000bfb297004fb39700dfb397000000060029
:10080000881f780018002000881f780089ff0700e3
:100810008f87e9004f04780000000600801feb007e
:1008200084ff07008f87e90000000600889fbe0054
:100830008a9fbe00e00f5000e08f5800e00f590083
:10084000e08f59000c003d006044b8006055b800ce
:100850000000540081805c0002015d0083815d0026
:10086000180020001500070008003d0018000700d0
:100870000004eb00050037000004eb000f00070048
:1008800002003d001200070018002000dcff0700f6
:100890000800e000060032006022b8006033b800b3
:1008a0000000520081805a0002015b0083815b00de
:1008b0004f05be004f04be0000000600e00f5200ce
:1008c000e08f5a00e00f5b00e08f5b000000060045
:1008d0006044b8006055b8000402540085825c0092
:1008e00006035d0087835d0000000600889fbe0050
:1008f0008a9fbe008c1f7800e00f5000e08f5800e8
:10090000e00f5900e08f59000d003d006044b80031
:100910006055b8000000540081805c0002015d0059
:1009200083815d001c0020000820e10009a8e1008f
:100930000ab0e1000bb8e1000d003d0008003700ef
:100940000006eb00e00f5200e08f5a00e00f5b0062
:10095000e08f5b0006003d006044b8006055b800c1
:100960000402540085825c0006035d0087835d00fd
:10097000aaff07000c00e000060032006022b80069
:100980006033b8000000520081805a0002015b0011
:1009900083815b004f0678004f05be004f04be0008
:0409a000000006004d
:020000040000fa
:1009a4000000fa0021088000f0fc2f0000806000a5
:1009b400200888000080eb00100888000021ef0068
:1009c40021058000f0ff28000080600000d0a00016
:1009d400200588008460a90005e1a8000080fa00d1
:1009e400000006000400fa009460a8000000000063
:1009f4009460a900c08020000108800001087800ec
:100a04004040800051408000008fbe00c080200024
:100a140010007800e10f400004003a001e00be0000
:100a240061005000e0805800008fbe000e00780086
:100a340090407800e0802000014878000e007800a3
:100a44000000e80090407800f08020000148780021
:100a54000e0078000080e8009040780000812000bb
:100a6400014878000e007800630040009040780050
:100a74001081200001487800200480006800600094
:100a84000000e000d8ff3a009460a8000080fa005b
:100a9400000006000000fa00000880008000eb005f
:100aa4000080fa00000006000400fa00cdff0700f1
:100ab4000e007800d1802000914078000148780031
:100ac4000e0078000000e800e180200091407800ea
:100ad400014878000e0078000080e800f1802000d2
:100ae40091407800014878000e00780063004000cf
:100af4000181200091407800014878001e00be006a
:100b04000080fa00000006000400fa00b5ff0700a8
:100b14000e007800e18020009140780001487800c0
:100b24000e0078000000e800f18020009140780079
:100b3400014878000e0078000080e8000181200060
:100b440091407800014878000e007800630040006e
:100b54001181200091407800014878001e00be00f9
:100b64000080fa00000006000400fa00008fbe00b6
:100b74001e02be006033b800f00120000100200016
:100b84006011b8000000420081804a0002014b005d
:100b940083814b00e4032000050020006033b8008b
:100ba40016ff07000000be000080fa0000000600e7
:100bb400809fbe000000fa00404080005140800049
:100bc40061004000e08048004040880051408800b7
:100bd4008460a9000080fa004f00be0000400600b7
:100be4000000fa00260007006dff0700a9ff0700b8
:100bf4002040880031408800601680004a00de00f2
:100c0400614060000004a200614060000080fb00bd
:100c1400610060004a00dd006116800001a0a100af
:100c240001007000601688000040800011408000c0
:100c340026000700f0ff37000000fa00213a800088
:100c440000fe2f0000806000203a8800313a8000c6
:100c540000e02f0000806000e001b300303a88001b
:100c6400213a8000f0f32f00008060000060a000b3
:100c7400203a880040a7a9000080fa00000006007e
:100c84000000fa00c942a9000080fa000000060032
:020000040000fa
:100c940000080000040000000200000064000000de
:100ca4000000000004080000040000000000000030
:100cb4000c08000006000000000000000808000006
:0c0cc40004000000000000000000000020
:020000040000fa
:100cd000f03fb1000180b10006003500ee030900cd
:100ce00000000000403fb1000180b100fbff3d006b
:100cf0001000b000203fb000020035000080090065
:080d00000000000000000600e5
:020000040000fa
:0200000401f009
:04000800ffff0000f6
:020000040000fa
:0200000401f009
:04000c0079ff000078
:020000040000fa
:0200000401f009
:04001000bfff00002e
:020000040000fa
:0200000401f009
:040014007fff00006a
:00000001FF
